{
	"contracts/4_sample.sol": {
		"MySmartContract": {
			"abi": [
				{
					"inputs": [],
					"stateMutability": "nonpayable",
					"type": "constructor"
				},
				{
					"inputs": [],
					"name": "balance",
					"outputs": [
						{
							"internalType": "uint256",
							"name": "",
							"type": "uint256"
						}
					],
					"stateMutability": "view",
					"type": "function"
				},
				{
					"inputs": [
						{
							"internalType": "uint256",
							"name": "amount",
							"type": "uint256"
						}
					],
					"name": "deposit",
					"outputs": [],
					"stateMutability": "nonpayable",
					"type": "function"
				},
				{
					"inputs": [],
					"name": "owner",
					"outputs": [
						{
							"internalType": "address",
							"name": "",
							"type": "address"
						}
					],
					"stateMutability": "view",
					"type": "function"
				},
				{
					"inputs": [
						{
							"internalType": "uint256",
							"name": "amount",
							"type": "uint256"
						},
						{
							"internalType": "address payable",
							"name": "recipient",
							"type": "address"
						}
					],
					"name": "transfer",
					"outputs": [],
					"stateMutability": "payable",
					"type": "function"
				},
				{
					"inputs": [
						{
							"internalType": "uint256",
							"name": "amount",
							"type": "uint256"
						}
					],
					"name": "withdraw",
					"outputs": [],
					"stateMutability": "nonpayable",
					"type": "function"
				}
			],
			"devdoc": {
				"kind": "dev",
				"methods": {},
				"version": 1
			},
			"evm": {
				"assembly": "    /* \"contracts/4_sample.sol\":58:1887  contract MySmartContract {... */\n  mstore(0x40, 0x80)\n    /* \"contracts/4_sample.sol\":144:193  constructor() {... */\n  callvalue\n  dup1\n  iszero\n  tag_1\n  jumpi\n  0x00\n  dup1\n  revert\ntag_1:\n  pop\n    /* \"contracts/4_sample.sol\":176:186  msg.sender */\n  caller\n    /* \"contracts/4_sample.sol\":168:173  owner */\n  0x00\n  dup1\n    /* \"contracts/4_sample.sol\":168:186  owner = msg.sender */\n  0x0100\n  exp\n  dup2\n  sload\n  dup2\n  0xffffffffffffffffffffffffffffffffffffffff\n  mul\n  not\n  and\n  swap1\n  dup4\n  0xffffffffffffffffffffffffffffffffffffffff\n  and\n  mul\n  or\n  swap1\n  sstore\n  pop\n    /* \"contracts/4_sample.sol\":58:1887  contract MySmartContract {... */\n  dataSize(sub_0)\n  dup1\n  dataOffset(sub_0)\n  0x00\n  codecopy\n  0x00\n  return\nstop\n\nsub_0: assembly {\n        /* \"contracts/4_sample.sol\":58:1887  contract MySmartContract {... */\n      mstore(0x40, 0x80)\n      jumpi(tag_1, lt(calldatasize, 0x04))\n      shr(0xe0, calldataload(0x00))\n      dup1\n      0x2e1a7d4d\n      eq\n      tag_2\n      jumpi\n      dup1\n      0x8da5cb5b\n      eq\n      tag_3\n      jumpi\n      dup1\n      0xb69ef8a8\n      eq\n      tag_4\n      jumpi\n      dup1\n      0xb6b55f25\n      eq\n      tag_5\n      jumpi\n      dup1\n      0xb7760c8f\n      eq\n      tag_6\n      jumpi\n    tag_1:\n      0x00\n      dup1\n      revert\n        /* \"contracts/4_sample.sol\":597:913  function withdraw(uint256 amount) external onlyOwner {... */\n    tag_2:\n      callvalue\n      dup1\n      iszero\n      tag_7\n      jumpi\n      0x00\n      dup1\n      revert\n    tag_7:\n      pop\n      tag_8\n      0x04\n      dup1\n      calldatasize\n      sub\n      dup2\n      add\n      swap1\n      tag_9\n      swap2\n      swap1\n      tag_10\n      jump\t// in\n    tag_9:\n      tag_11\n      jump\t// in\n    tag_8:\n      stop\n        /* \"contracts/4_sample.sol\":89:109  address public owner */\n    tag_3:\n      callvalue\n      dup1\n      iszero\n      tag_12\n      jumpi\n      0x00\n      dup1\n      revert\n    tag_12:\n      pop\n      tag_13\n      tag_14\n      jump\t// in\n    tag_13:\n      mload(0x40)\n      tag_15\n      swap2\n      swap1\n      tag_16\n      jump\t// in\n    tag_15:\n      mload(0x40)\n      dup1\n      swap2\n      sub\n      swap1\n      return\n        /* \"contracts/4_sample.sol\":115:137  uint256 public balance */\n    tag_4:\n      callvalue\n      dup1\n      iszero\n      tag_17\n      jumpi\n      0x00\n      dup1\n      revert\n    tag_17:\n      pop\n      tag_18\n      tag_19\n      jump\t// in\n    tag_18:\n      mload(0x40)\n      tag_20\n      swap2\n      swap1\n      tag_21\n      jump\t// in\n    tag_20:\n      mload(0x40)\n      dup1\n      swap2\n      sub\n      swap1\n      return\n        /* \"contracts/4_sample.sol\":366:591  function deposit(uint256 amount) external onlyOwner {... */\n    tag_5:\n      callvalue\n      dup1\n      iszero\n      tag_22\n      jumpi\n      0x00\n      dup1\n      revert\n    tag_22:\n      pop\n      tag_23\n      0x04\n      dup1\n      calldatasize\n      sub\n      dup2\n      add\n      swap1\n      tag_24\n      swap2\n      swap1\n      tag_10\n      jump\t// in\n    tag_24:\n      tag_25\n      jump\t// in\n    tag_23:\n      stop\n        /* \"contracts/4_sample.sol\":919:1885  function transfer(uint256 amount, address payable recipient)... */\n    tag_6:\n      tag_26\n      0x04\n      dup1\n      calldatasize\n      sub\n      dup2\n      add\n      swap1\n      tag_27\n      swap2\n      swap1\n      tag_28\n      jump\t// in\n    tag_27:\n      tag_29\n      jump\t// in\n    tag_26:\n      stop\n        /* \"contracts/4_sample.sol\":597:913  function withdraw(uint256 amount) external onlyOwner {... */\n    tag_11:\n        /* \"contracts/4_sample.sol\":265:270  owner */\n      0x00\n      dup1\n      sload\n      swap1\n      0x0100\n      exp\n      swap1\n      div\n      0xffffffffffffffffffffffffffffffffffffffff\n      and\n        /* \"contracts/4_sample.sol\":251:270  msg.sender == owner */\n      0xffffffffffffffffffffffffffffffffffffffff\n      and\n        /* \"contracts/4_sample.sol\":251:261  msg.sender */\n      caller\n        /* \"contracts/4_sample.sol\":251:270  msg.sender == owner */\n      0xffffffffffffffffffffffffffffffffffffffff\n      and\n      eq\n        /* \"contracts/4_sample.sol\":230:342  require(... */\n      tag_31\n      jumpi\n      mload(0x40)\n      0x08c379a000000000000000000000000000000000000000000000000000000000\n      dup2\n      mstore\n      0x04\n      add\n      tag_32\n      swap1\n      tag_33\n      jump\t// in\n    tag_32:\n      mload(0x40)\n      dup1\n      swap2\n      sub\n      swap1\n      revert\n    tag_31:\n        /* \"contracts/4_sample.sol\":732:738  amount */\n      dup1\n        /* \"contracts/4_sample.sol\":721:728  balance */\n      sload(0x01)\n        /* \"contracts/4_sample.sol\":721:738  balance >= amount */\n      lt\n      iszero\n        /* \"contracts/4_sample.sol\":714:739  assert(balance >= amount) */\n      tag_35\n      jumpi\n      tag_36\n      tag_37\n      jump\t// in\n    tag_36:\n    tag_35:\n        /* \"contracts/4_sample.sol\":808:809  0 */\n      0x00\n        /* \"contracts/4_sample.sol\":799:805  amount */\n      dup2\n        /* \"contracts/4_sample.sol\":799:809  amount > 0 */\n      gt\n        /* \"contracts/4_sample.sol\":791:846  require(amount > 0, \"Amount must be greater than zero\") */\n      tag_38\n      jumpi\n      mload(0x40)\n      0x08c379a000000000000000000000000000000000000000000000000000000000\n      dup2\n      mstore\n      0x04\n      add\n      tag_39\n      swap1\n      tag_40\n      jump\t// in\n    tag_39:\n      mload(0x40)\n      dup1\n      swap2\n      sub\n      swap1\n      revert\n    tag_38:\n        /* \"contracts/4_sample.sol\":900:906  amount */\n      dup1\n        /* \"contracts/4_sample.sol\":889:896  balance */\n      0x01\n      0x00\n        /* \"contracts/4_sample.sol\":889:906  balance -= amount */\n      dup3\n      dup3\n      sload\n      tag_41\n      swap2\n      swap1\n      tag_42\n      jump\t// in\n    tag_41:\n      swap3\n      pop\n      pop\n      dup2\n      swap1\n      sstore\n      pop\n        /* \"contracts/4_sample.sol\":597:913  function withdraw(uint256 amount) external onlyOwner {... */\n      pop\n      jump\t// out\n        /* \"contracts/4_sample.sol\":89:109  address public owner */\n    tag_14:\n      0x00\n      dup1\n      sload\n      swap1\n      0x0100\n      exp\n      swap1\n      div\n      0xffffffffffffffffffffffffffffffffffffffff\n      and\n      dup2\n      jump\t// out\n        /* \"contracts/4_sample.sol\":115:137  uint256 public balance */\n    tag_19:\n      sload(0x01)\n      dup2\n      jump\t// out\n        /* \"contracts/4_sample.sol\":366:591  function deposit(uint256 amount) external onlyOwner {... */\n    tag_25:\n        /* \"contracts/4_sample.sol\":265:270  owner */\n      0x00\n      dup1\n      sload\n      swap1\n      0x0100\n      exp\n      swap1\n      div\n      0xffffffffffffffffffffffffffffffffffffffff\n      and\n        /* \"contracts/4_sample.sol\":251:270  msg.sender == owner */\n      0xffffffffffffffffffffffffffffffffffffffff\n      and\n        /* \"contracts/4_sample.sol\":251:261  msg.sender */\n      caller\n        /* \"contracts/4_sample.sol\":251:270  msg.sender == owner */\n      0xffffffffffffffffffffffffffffffffffffffff\n      and\n      eq\n        /* \"contracts/4_sample.sol\":230:342  require(... */\n      tag_44\n      jumpi\n      mload(0x40)\n      0x08c379a000000000000000000000000000000000000000000000000000000000\n      dup2\n      mstore\n      0x04\n      add\n      tag_45\n      swap1\n      tag_33\n      jump\t// in\n    tag_45:\n      mload(0x40)\n      dup1\n      swap2\n      sub\n      swap1\n      revert\n    tag_44:\n        /* \"contracts/4_sample.sol\":486:487  0 */\n      0x00\n        /* \"contracts/4_sample.sol\":477:483  amount */\n      dup2\n        /* \"contracts/4_sample.sol\":477:487  amount > 0 */\n      gt\n        /* \"contracts/4_sample.sol\":469:524  require(amount > 0, \"Amount must be greater than zero\") */\n      tag_47\n      jumpi\n      mload(0x40)\n      0x08c379a000000000000000000000000000000000000000000000000000000000\n      dup2\n      mstore\n      0x04\n      add\n      tag_48\n      swap1\n      tag_40\n      jump\t// in\n    tag_48:\n      mload(0x40)\n      dup1\n      swap2\n      sub\n      swap1\n      revert\n    tag_47:\n        /* \"contracts/4_sample.sol\":578:584  amount */\n      dup1\n        /* \"contracts/4_sample.sol\":567:574  balance */\n      0x01\n      0x00\n        /* \"contracts/4_sample.sol\":567:584  balance += amount */\n      dup3\n      dup3\n      sload\n      tag_49\n      swap2\n      swap1\n      tag_50\n      jump\t// in\n    tag_49:\n      swap3\n      pop\n      pop\n      dup2\n      swap1\n      sstore\n      pop\n        /* \"contracts/4_sample.sol\":366:591  function deposit(uint256 amount) external onlyOwner {... */\n      pop\n      jump\t// out\n        /* \"contracts/4_sample.sol\":919:1885  function transfer(uint256 amount, address payable recipient)... */\n    tag_29:\n        /* \"contracts/4_sample.sol\":265:270  owner */\n      0x00\n      dup1\n      sload\n      swap1\n      0x0100\n      exp\n      swap1\n      div\n      0xffffffffffffffffffffffffffffffffffffffff\n      and\n        /* \"contracts/4_sample.sol\":251:270  msg.sender == owner */\n      0xffffffffffffffffffffffffffffffffffffffff\n      and\n        /* \"contracts/4_sample.sol\":251:261  msg.sender */\n      caller\n        /* \"contracts/4_sample.sol\":251:270  msg.sender == owner */\n      0xffffffffffffffffffffffffffffffffffffffff\n      and\n      eq\n        /* \"contracts/4_sample.sol\":230:342  require(... */\n      tag_52\n      jumpi\n      mload(0x40)\n      0x08c379a000000000000000000000000000000000000000000000000000000000\n      dup2\n      mstore\n      0x04\n      add\n      tag_53\n      swap1\n      tag_33\n      jump\t// in\n    tag_53:\n      mload(0x40)\n      dup1\n      swap2\n      sub\n      swap1\n      revert\n    tag_52:\n        /* \"contracts/4_sample.sol\":1118:1124  amount */\n      dup2\n        /* \"contracts/4_sample.sol\":1107:1114  balance */\n      sload(0x01)\n        /* \"contracts/4_sample.sol\":1107:1124  balance >= amount */\n      lt\n      iszero\n        /* \"contracts/4_sample.sol\":1099:1147  require(balance >= amount, \"Insufficient funds\") */\n      tag_55\n      jumpi\n      mload(0x40)\n      0x08c379a000000000000000000000000000000000000000000000000000000000\n      dup2\n      mstore\n      0x04\n      add\n      tag_56\n      swap1\n      tag_57\n      jump\t// in\n    tag_56:\n      mload(0x40)\n      dup1\n      swap2\n      sub\n      swap1\n      revert\n    tag_55:\n        /* \"contracts/4_sample.sol\":1216:1217  0 */\n      0x00\n        /* \"contracts/4_sample.sol\":1207:1213  amount */\n      dup3\n        /* \"contracts/4_sample.sol\":1207:1217  amount > 0 */\n      gt\n        /* \"contracts/4_sample.sol\":1199:1254  require(amount > 0, \"Amount must be greater than zero\") */\n      tag_58\n      jumpi\n      mload(0x40)\n      0x08c379a000000000000000000000000000000000000000000000000000000000\n      dup2\n      mstore\n      0x04\n      add\n      tag_59\n      swap1\n      tag_40\n      jump\t// in\n    tag_59:\n      mload(0x40)\n      dup1\n      swap2\n      sub\n      swap1\n      revert\n    tag_58:\n        /* \"contracts/4_sample.sol\":1335:1340  owner */\n      0x00\n      dup1\n      sload\n      swap1\n      0x0100\n      exp\n      swap1\n      div\n      0xffffffffffffffffffffffffffffffffffffffff\n      and\n        /* \"contracts/4_sample.sol\":1322:1340  recipient != owner */\n      0xffffffffffffffffffffffffffffffffffffffff\n      and\n        /* \"contracts/4_sample.sol\":1322:1331  recipient */\n      dup2\n        /* \"contracts/4_sample.sol\":1322:1340  recipient != owner */\n      0xffffffffffffffffffffffffffffffffffffffff\n      and\n      sub\n        /* \"contracts/4_sample.sol\":1314:1383  require(recipient != owner, \"Recipient cannot be the contract owner\") */\n      tag_60\n      jumpi\n      mload(0x40)\n      0x08c379a000000000000000000000000000000000000000000000000000000000\n      dup2\n      mstore\n      0x04\n      add\n      tag_61\n      swap1\n      tag_62\n      jump\t// in\n    tag_61:\n      mload(0x40)\n      dup1\n      swap2\n      sub\n      swap1\n      revert\n    tag_60:\n        /* \"contracts/4_sample.sol\":1520:1527  balance */\n      sload(0x01)\n        /* \"contracts/4_sample.sol\":1507:1516  msg.value */\n      callvalue\n        /* \"contracts/4_sample.sol\":1507:1527  msg.value <= balance */\n      gt\n      iszero\n        /* \"contracts/4_sample.sol\":1499:1567  require(msg.value <= balance, \"Value sent exceeds contract balance\") */\n      tag_63\n      jumpi\n      mload(0x40)\n      0x08c379a000000000000000000000000000000000000000000000000000000000\n      dup2\n      mstore\n      0x04\n      add\n      tag_64\n      swap1\n      tag_65\n      jump\t// in\n    tag_64:\n      mload(0x40)\n      dup1\n      swap2\n      sub\n      swap1\n      revert\n    tag_63:\n        /* \"contracts/4_sample.sol\":1632:1638  amount */\n      dup2\n        /* \"contracts/4_sample.sol\":1621:1628  balance */\n      0x01\n      0x00\n        /* \"contracts/4_sample.sol\":1621:1638  balance -= amount */\n      dup3\n      dup3\n      sload\n      tag_66\n      swap2\n      swap1\n      tag_42\n      jump\t// in\n    tag_66:\n      swap3\n      pop\n      pop\n      dup2\n      swap1\n      sstore\n      pop\n        /* \"contracts/4_sample.sol\":1697:1706  recipient */\n      dup1\n        /* \"contracts/4_sample.sol\":1697:1715  recipient.transfer */\n      0xffffffffffffffffffffffffffffffffffffffff\n      and\n        /* \"contracts/4_sample.sol\":1697:1723  recipient.transfer(amount) */\n      0x08fc\n        /* \"contracts/4_sample.sol\":1716:1722  amount */\n      dup4\n        /* \"contracts/4_sample.sol\":1697:1723  recipient.transfer(amount) */\n      swap1\n      dup2\n      iszero\n      mul\n      swap1\n      mload(0x40)\n      0x00\n      mload(0x40)\n      dup1\n      dup4\n      sub\n      dup2\n      dup6\n      dup9\n      dup9\n      call\n      swap4\n      pop\n      pop\n      pop\n      pop\n      iszero\n      dup1\n      iszero\n      tag_68\n      jumpi\n      returndatasize\n      0x00\n      dup1\n      returndatacopy\n      revert(0x00, returndatasize)\n    tag_68:\n      pop\n        /* \"contracts/4_sample.sol\":1798:1804  amount */\n      dup2\n        /* \"contracts/4_sample.sol\":1786:1795  msg.value */\n      callvalue\n        /* \"contracts/4_sample.sol\":1786:1804  msg.value > amount */\n      gt\n        /* \"contracts/4_sample.sol\":1782:1879  if (msg.value > amount) {... */\n      iszero\n      tag_69\n      jumpi\n        /* \"contracts/4_sample.sol\":1828:1838  msg.sender */\n      caller\n        /* \"contracts/4_sample.sol\":1820:1848  payable(msg.sender).transfer */\n      0xffffffffffffffffffffffffffffffffffffffff\n      and\n        /* \"contracts/4_sample.sol\":1820:1868  payable(msg.sender).transfer(msg.value - amount) */\n      0x08fc\n        /* \"contracts/4_sample.sol\":1861:1867  amount */\n      dup4\n        /* \"contracts/4_sample.sol\":1849:1858  msg.value */\n      callvalue\n        /* \"contracts/4_sample.sol\":1849:1867  msg.value - amount */\n      tag_70\n      swap2\n      swap1\n      tag_42\n      jump\t// in\n    tag_70:\n        /* \"contracts/4_sample.sol\":1820:1868  payable(msg.sender).transfer(msg.value - amount) */\n      swap1\n      dup2\n      iszero\n      mul\n      swap1\n      mload(0x40)\n      0x00\n      mload(0x40)\n      dup1\n      dup4\n      sub\n      dup2\n      dup6\n      dup9\n      dup9\n      call\n      swap4\n      pop\n      pop\n      pop\n      pop\n      iszero\n      dup1\n      iszero\n      tag_72\n      jumpi\n      returndatasize\n      0x00\n      dup1\n      returndatacopy\n      revert(0x00, returndatasize)\n    tag_72:\n      pop\n        /* \"contracts/4_sample.sol\":1782:1879  if (msg.value > amount) {... */\n    tag_69:\n        /* \"contracts/4_sample.sol\":919:1885  function transfer(uint256 amount, address payable recipient)... */\n      pop\n      pop\n      jump\t// out\n        /* \"#utility.yul\":88:205   */\n    tag_74:\n        /* \"#utility.yul\":197:198   */\n      0x00\n        /* \"#utility.yul\":194:195   */\n      dup1\n        /* \"#utility.yul\":187:199   */\n      revert\n        /* \"#utility.yul\":334:411   */\n    tag_76:\n        /* \"#utility.yul\":371:378   */\n      0x00\n        /* \"#utility.yul\":400:405   */\n      dup2\n        /* \"#utility.yul\":389:405   */\n      swap1\n      pop\n        /* \"#utility.yul\":334:411   */\n      swap2\n      swap1\n      pop\n      jump\t// out\n        /* \"#utility.yul\":417:539   */\n    tag_77:\n        /* \"#utility.yul\":490:514   */\n      tag_104\n        /* \"#utility.yul\":508:513   */\n      dup2\n        /* \"#utility.yul\":490:514   */\n      tag_76\n      jump\t// in\n    tag_104:\n        /* \"#utility.yul\":483:488   */\n      dup2\n        /* \"#utility.yul\":480:515   */\n      eq\n        /* \"#utility.yul\":470:533   */\n      tag_105\n      jumpi\n        /* \"#utility.yul\":529:530   */\n      0x00\n        /* \"#utility.yul\":526:527   */\n      dup1\n        /* \"#utility.yul\":519:531   */\n      revert\n        /* \"#utility.yul\":470:533   */\n    tag_105:\n        /* \"#utility.yul\":417:539   */\n      pop\n      jump\t// out\n        /* \"#utility.yul\":545:684   */\n    tag_78:\n        /* \"#utility.yul\":591:596   */\n      0x00\n        /* \"#utility.yul\":629:635   */\n      dup2\n        /* \"#utility.yul\":616:636   */\n      calldataload\n        /* \"#utility.yul\":607:636   */\n      swap1\n      pop\n        /* \"#utility.yul\":645:678   */\n      tag_107\n        /* \"#utility.yul\":672:677   */\n      dup2\n        /* \"#utility.yul\":645:678   */\n      tag_77\n      jump\t// in\n    tag_107:\n        /* \"#utility.yul\":545:684   */\n      swap3\n      swap2\n      pop\n      pop\n      jump\t// out\n        /* \"#utility.yul\":690:1019   */\n    tag_10:\n        /* \"#utility.yul\":749:755   */\n      0x00\n        /* \"#utility.yul\":798:800   */\n      0x20\n        /* \"#utility.yul\":786:795   */\n      dup3\n        /* \"#utility.yul\":777:784   */\n      dup5\n        /* \"#utility.yul\":773:796   */\n      sub\n        /* \"#utility.yul\":769:801   */\n      slt\n        /* \"#utility.yul\":766:885   */\n      iszero\n      tag_109\n      jumpi\n        /* \"#utility.yul\":804:883   */\n      tag_110\n      tag_74\n      jump\t// in\n    tag_110:\n        /* \"#utility.yul\":766:885   */\n    tag_109:\n        /* \"#utility.yul\":924:925   */\n      0x00\n        /* \"#utility.yul\":949:1002   */\n      tag_111\n        /* \"#utility.yul\":994:1001   */\n      dup5\n        /* \"#utility.yul\":985:991   */\n      dup3\n        /* \"#utility.yul\":974:983   */\n      dup6\n        /* \"#utility.yul\":970:992   */\n      add\n        /* \"#utility.yul\":949:1002   */\n      tag_78\n      jump\t// in\n    tag_111:\n        /* \"#utility.yul\":939:1002   */\n      swap2\n      pop\n        /* \"#utility.yul\":895:1012   */\n      pop\n        /* \"#utility.yul\":690:1019   */\n      swap3\n      swap2\n      pop\n      pop\n      jump\t// out\n        /* \"#utility.yul\":1025:1151   */\n    tag_79:\n        /* \"#utility.yul\":1062:1069   */\n      0x00\n        /* \"#utility.yul\":1102:1144   */\n      0xffffffffffffffffffffffffffffffffffffffff\n        /* \"#utility.yul\":1095:1100   */\n      dup3\n        /* \"#utility.yul\":1091:1145   */\n      and\n        /* \"#utility.yul\":1080:1145   */\n      swap1\n      pop\n        /* \"#utility.yul\":1025:1151   */\n      swap2\n      swap1\n      pop\n      jump\t// out\n        /* \"#utility.yul\":1157:1253   */\n    tag_80:\n        /* \"#utility.yul\":1194:1201   */\n      0x00\n        /* \"#utility.yul\":1223:1247   */\n      tag_114\n        /* \"#utility.yul\":1241:1246   */\n      dup3\n        /* \"#utility.yul\":1223:1247   */\n      tag_79\n      jump\t// in\n    tag_114:\n        /* \"#utility.yul\":1212:1247   */\n      swap1\n      pop\n        /* \"#utility.yul\":1157:1253   */\n      swap2\n      swap1\n      pop\n      jump\t// out\n        /* \"#utility.yul\":1259:1377   */\n    tag_81:\n        /* \"#utility.yul\":1346:1370   */\n      tag_116\n        /* \"#utility.yul\":1364:1369   */\n      dup2\n        /* \"#utility.yul\":1346:1370   */\n      tag_80\n      jump\t// in\n    tag_116:\n        /* \"#utility.yul\":1341:1344   */\n      dup3\n        /* \"#utility.yul\":1334:1371   */\n      mstore\n        /* \"#utility.yul\":1259:1377   */\n      pop\n      pop\n      jump\t// out\n        /* \"#utility.yul\":1383:1605   */\n    tag_16:\n        /* \"#utility.yul\":1476:1480   */\n      0x00\n        /* \"#utility.yul\":1514:1516   */\n      0x20\n        /* \"#utility.yul\":1503:1512   */\n      dup3\n        /* \"#utility.yul\":1499:1517   */\n      add\n        /* \"#utility.yul\":1491:1517   */\n      swap1\n      pop\n        /* \"#utility.yul\":1527:1598   */\n      tag_118\n        /* \"#utility.yul\":1595:1596   */\n      0x00\n        /* \"#utility.yul\":1584:1593   */\n      dup4\n        /* \"#utility.yul\":1580:1597   */\n      add\n        /* \"#utility.yul\":1571:1577   */\n      dup5\n        /* \"#utility.yul\":1527:1598   */\n      tag_81\n      jump\t// in\n    tag_118:\n        /* \"#utility.yul\":1383:1605   */\n      swap3\n      swap2\n      pop\n      pop\n      jump\t// out\n        /* \"#utility.yul\":1611:1729   */\n    tag_82:\n        /* \"#utility.yul\":1698:1722   */\n      tag_120\n        /* \"#utility.yul\":1716:1721   */\n      dup2\n        /* \"#utility.yul\":1698:1722   */\n      tag_76\n      jump\t// in\n    tag_120:\n        /* \"#utility.yul\":1693:1696   */\n      dup3\n        /* \"#utility.yul\":1686:1723   */\n      mstore\n        /* \"#utility.yul\":1611:1729   */\n      pop\n      pop\n      jump\t// out\n        /* \"#utility.yul\":1735:1957   */\n    tag_21:\n        /* \"#utility.yul\":1828:1832   */\n      0x00\n        /* \"#utility.yul\":1866:1868   */\n      0x20\n        /* \"#utility.yul\":1855:1864   */\n      dup3\n        /* \"#utility.yul\":1851:1869   */\n      add\n        /* \"#utility.yul\":1843:1869   */\n      swap1\n      pop\n        /* \"#utility.yul\":1879:1950   */\n      tag_122\n        /* \"#utility.yul\":1947:1948   */\n      0x00\n        /* \"#utility.yul\":1936:1945   */\n      dup4\n        /* \"#utility.yul\":1932:1949   */\n      add\n        /* \"#utility.yul\":1923:1929   */\n      dup5\n        /* \"#utility.yul\":1879:1950   */\n      tag_82\n      jump\t// in\n    tag_122:\n        /* \"#utility.yul\":1735:1957   */\n      swap3\n      swap2\n      pop\n      pop\n      jump\t// out\n        /* \"#utility.yul\":1963:2067   */\n    tag_83:\n        /* \"#utility.yul\":2008:2015   */\n      0x00\n        /* \"#utility.yul\":2037:2061   */\n      tag_124\n        /* \"#utility.yul\":2055:2060   */\n      dup3\n        /* \"#utility.yul\":2037:2061   */\n      tag_79\n      jump\t// in\n    tag_124:\n        /* \"#utility.yul\":2026:2061   */\n      swap1\n      pop\n        /* \"#utility.yul\":1963:2067   */\n      swap2\n      swap1\n      pop\n      jump\t// out\n        /* \"#utility.yul\":2073:2211   */\n    tag_84:\n        /* \"#utility.yul\":2154:2186   */\n      tag_126\n        /* \"#utility.yul\":2180:2185   */\n      dup2\n        /* \"#utility.yul\":2154:2186   */\n      tag_83\n      jump\t// in\n    tag_126:\n        /* \"#utility.yul\":2147:2152   */\n      dup2\n        /* \"#utility.yul\":2144:2187   */\n      eq\n        /* \"#utility.yul\":2134:2205   */\n      tag_127\n      jumpi\n        /* \"#utility.yul\":2201:2202   */\n      0x00\n        /* \"#utility.yul\":2198:2199   */\n      dup1\n        /* \"#utility.yul\":2191:2203   */\n      revert\n        /* \"#utility.yul\":2134:2205   */\n    tag_127:\n        /* \"#utility.yul\":2073:2211   */\n      pop\n      jump\t// out\n        /* \"#utility.yul\":2217:2372   */\n    tag_85:\n        /* \"#utility.yul\":2271:2276   */\n      0x00\n        /* \"#utility.yul\":2309:2315   */\n      dup2\n        /* \"#utility.yul\":2296:2316   */\n      calldataload\n        /* \"#utility.yul\":2287:2316   */\n      swap1\n      pop\n        /* \"#utility.yul\":2325:2366   */\n      tag_129\n        /* \"#utility.yul\":2360:2365   */\n      dup2\n        /* \"#utility.yul\":2325:2366   */\n      tag_84\n      jump\t// in\n    tag_129:\n        /* \"#utility.yul\":2217:2372   */\n      swap3\n      swap2\n      pop\n      pop\n      jump\t// out\n        /* \"#utility.yul\":2378:2868   */\n    tag_28:\n        /* \"#utility.yul\":2454:2460   */\n      0x00\n        /* \"#utility.yul\":2462:2468   */\n      dup1\n        /* \"#utility.yul\":2511:2513   */\n      0x40\n        /* \"#utility.yul\":2499:2508   */\n      dup4\n        /* \"#utility.yul\":2490:2497   */\n      dup6\n        /* \"#utility.yul\":2486:2509   */\n      sub\n        /* \"#utility.yul\":2482:2514   */\n      slt\n        /* \"#utility.yul\":2479:2598   */\n      iszero\n      tag_131\n      jumpi\n        /* \"#utility.yul\":2517:2596   */\n      tag_132\n      tag_74\n      jump\t// in\n    tag_132:\n        /* \"#utility.yul\":2479:2598   */\n    tag_131:\n        /* \"#utility.yul\":2637:2638   */\n      0x00\n        /* \"#utility.yul\":2662:2715   */\n      tag_133\n        /* \"#utility.yul\":2707:2714   */\n      dup6\n        /* \"#utility.yul\":2698:2704   */\n      dup3\n        /* \"#utility.yul\":2687:2696   */\n      dup7\n        /* \"#utility.yul\":2683:2705   */\n      add\n        /* \"#utility.yul\":2662:2715   */\n      tag_78\n      jump\t// in\n    tag_133:\n        /* \"#utility.yul\":2652:2715   */\n      swap3\n      pop\n        /* \"#utility.yul\":2608:2725   */\n      pop\n        /* \"#utility.yul\":2764:2766   */\n      0x20\n        /* \"#utility.yul\":2790:2851   */\n      tag_134\n        /* \"#utility.yul\":2843:2850   */\n      dup6\n        /* \"#utility.yul\":2834:2840   */\n      dup3\n        /* \"#utility.yul\":2823:2832   */\n      dup7\n        /* \"#utility.yul\":2819:2841   */\n      add\n        /* \"#utility.yul\":2790:2851   */\n      tag_85\n      jump\t// in\n    tag_134:\n        /* \"#utility.yul\":2780:2851   */\n      swap2\n      pop\n        /* \"#utility.yul\":2735:2861   */\n      pop\n        /* \"#utility.yul\":2378:2868   */\n      swap3\n      pop\n      swap3\n      swap1\n      pop\n      jump\t// out\n        /* \"#utility.yul\":2874:3043   */\n    tag_86:\n        /* \"#utility.yul\":2958:2969   */\n      0x00\n        /* \"#utility.yul\":2992:2998   */\n      dup3\n        /* \"#utility.yul\":2987:2990   */\n      dup3\n        /* \"#utility.yul\":2980:2999   */\n      mstore\n        /* \"#utility.yul\":3032:3036   */\n      0x20\n        /* \"#utility.yul\":3027:3030   */\n      dup3\n        /* \"#utility.yul\":3023:3037   */\n      add\n        /* \"#utility.yul\":3008:3037   */\n      swap1\n      pop\n        /* \"#utility.yul\":2874:3043   */\n      swap3\n      swap2\n      pop\n      pop\n      jump\t// out\n        /* \"#utility.yul\":3049:3282   */\n    tag_87:\n        /* \"#utility.yul\":3189:3223   */\n      0x4f6e6c7920636f6e7472616374206f776e65722063616e20706572666f726d20\n        /* \"#utility.yul\":3185:3186   */\n      0x00\n        /* \"#utility.yul\":3177:3183   */\n      dup3\n        /* \"#utility.yul\":3173:3187   */\n      add\n        /* \"#utility.yul\":3166:3224   */\n      mstore\n        /* \"#utility.yul\":3258:3274   */\n      0x74686973206f7065726174696f6e000000000000000000000000000000000000\n        /* \"#utility.yul\":3253:3255   */\n      0x20\n        /* \"#utility.yul\":3245:3251   */\n      dup3\n        /* \"#utility.yul\":3241:3256   */\n      add\n        /* \"#utility.yul\":3234:3275   */\n      mstore\n        /* \"#utility.yul\":3049:3282   */\n      pop\n      jump\t// out\n        /* \"#utility.yul\":3288:3654   */\n    tag_88:\n        /* \"#utility.yul\":3430:3433   */\n      0x00\n        /* \"#utility.yul\":3451:3518   */\n      tag_138\n        /* \"#utility.yul\":3515:3517   */\n      0x2e\n        /* \"#utility.yul\":3510:3513   */\n      dup4\n        /* \"#utility.yul\":3451:3518   */\n      tag_86\n      jump\t// in\n    tag_138:\n        /* \"#utility.yul\":3444:3518   */\n      swap2\n      pop\n        /* \"#utility.yul\":3527:3620   */\n      tag_139\n        /* \"#utility.yul\":3616:3619   */\n      dup3\n        /* \"#utility.yul\":3527:3620   */\n      tag_87\n      jump\t// in\n    tag_139:\n        /* \"#utility.yul\":3645:3647   */\n      0x40\n        /* \"#utility.yul\":3640:3643   */\n      dup3\n        /* \"#utility.yul\":3636:3648   */\n      add\n        /* \"#utility.yul\":3629:3648   */\n      swap1\n      pop\n        /* \"#utility.yul\":3288:3654   */\n      swap2\n      swap1\n      pop\n      jump\t// out\n        /* \"#utility.yul\":3660:4079   */\n    tag_33:\n        /* \"#utility.yul\":3826:3830   */\n      0x00\n        /* \"#utility.yul\":3864:3866   */\n      0x20\n        /* \"#utility.yul\":3853:3862   */\n      dup3\n        /* \"#utility.yul\":3849:3867   */\n      add\n        /* \"#utility.yul\":3841:3867   */\n      swap1\n      pop\n        /* \"#utility.yul\":3913:3922   */\n      dup2\n        /* \"#utility.yul\":3907:3911   */\n      dup2\n        /* \"#utility.yul\":3903:3923   */\n      sub\n        /* \"#utility.yul\":3899:3900   */\n      0x00\n        /* \"#utility.yul\":3888:3897   */\n      dup4\n        /* \"#utility.yul\":3884:3901   */\n      add\n        /* \"#utility.yul\":3877:3924   */\n      mstore\n        /* \"#utility.yul\":3941:4072   */\n      tag_141\n        /* \"#utility.yul\":4067:4071   */\n      dup2\n        /* \"#utility.yul\":3941:4072   */\n      tag_88\n      jump\t// in\n    tag_141:\n        /* \"#utility.yul\":3933:4072   */\n      swap1\n      pop\n        /* \"#utility.yul\":3660:4079   */\n      swap2\n      swap1\n      pop\n      jump\t// out\n        /* \"#utility.yul\":4085:4265   */\n    tag_37:\n        /* \"#utility.yul\":4133:4210   */\n      0x4e487b7100000000000000000000000000000000000000000000000000000000\n        /* \"#utility.yul\":4130:4131   */\n      0x00\n        /* \"#utility.yul\":4123:4211   */\n      mstore\n        /* \"#utility.yul\":4230:4234   */\n      0x01\n        /* \"#utility.yul\":4227:4228   */\n      0x04\n        /* \"#utility.yul\":4220:4235   */\n      mstore\n        /* \"#utility.yul\":4254:4258   */\n      0x24\n        /* \"#utility.yul\":4251:4252   */\n      0x00\n        /* \"#utility.yul\":4244:4259   */\n      revert\n        /* \"#utility.yul\":4271:4453   */\n    tag_89:\n        /* \"#utility.yul\":4411:4445   */\n      0x416d6f756e74206d7573742062652067726561746572207468616e207a65726f\n        /* \"#utility.yul\":4407:4408   */\n      0x00\n        /* \"#utility.yul\":4399:4405   */\n      dup3\n        /* \"#utility.yul\":4395:4409   */\n      add\n        /* \"#utility.yul\":4388:4446   */\n      mstore\n        /* \"#utility.yul\":4271:4453   */\n      pop\n      jump\t// out\n        /* \"#utility.yul\":4459:4825   */\n    tag_90:\n        /* \"#utility.yul\":4601:4604   */\n      0x00\n        /* \"#utility.yul\":4622:4689   */\n      tag_145\n        /* \"#utility.yul\":4686:4688   */\n      0x20\n        /* \"#utility.yul\":4681:4684   */\n      dup4\n        /* \"#utility.yul\":4622:4689   */\n      tag_86\n      jump\t// in\n    tag_145:\n        /* \"#utility.yul\":4615:4689   */\n      swap2\n      pop\n        /* \"#utility.yul\":4698:4791   */\n      tag_146\n        /* \"#utility.yul\":4787:4790   */\n      dup3\n        /* \"#utility.yul\":4698:4791   */\n      tag_89\n      jump\t// in\n    tag_146:\n        /* \"#utility.yul\":4816:4818   */\n      0x20\n        /* \"#utility.yul\":4811:4814   */\n      dup3\n        /* \"#utility.yul\":4807:4819   */\n      add\n        /* \"#utility.yul\":4800:4819   */\n      swap1\n      pop\n        /* \"#utility.yul\":4459:4825   */\n      swap2\n      swap1\n      pop\n      jump\t// out\n        /* \"#utility.yul\":4831:5250   */\n    tag_40:\n        /* \"#utility.yul\":4997:5001   */\n      0x00\n        /* \"#utility.yul\":5035:5037   */\n      0x20\n        /* \"#utility.yul\":5024:5033   */\n      dup3\n        /* \"#utility.yul\":5020:5038   */\n      add\n        /* \"#utility.yul\":5012:5038   */\n      swap1\n      pop\n        /* \"#utility.yul\":5084:5093   */\n      dup2\n        /* \"#utility.yul\":5078:5082   */\n      dup2\n        /* \"#utility.yul\":5074:5094   */\n      sub\n        /* \"#utility.yul\":5070:5071   */\n      0x00\n        /* \"#utility.yul\":5059:5068   */\n      dup4\n        /* \"#utility.yul\":5055:5072   */\n      add\n        /* \"#utility.yul\":5048:5095   */\n      mstore\n        /* \"#utility.yul\":5112:5243   */\n      tag_148\n        /* \"#utility.yul\":5238:5242   */\n      dup2\n        /* \"#utility.yul\":5112:5243   */\n      tag_90\n      jump\t// in\n    tag_148:\n        /* \"#utility.yul\":5104:5243   */\n      swap1\n      pop\n        /* \"#utility.yul\":4831:5250   */\n      swap2\n      swap1\n      pop\n      jump\t// out\n        /* \"#utility.yul\":5256:5436   */\n    tag_91:\n        /* \"#utility.yul\":5304:5381   */\n      0x4e487b7100000000000000000000000000000000000000000000000000000000\n        /* \"#utility.yul\":5301:5302   */\n      0x00\n        /* \"#utility.yul\":5294:5382   */\n      mstore\n        /* \"#utility.yul\":5401:5405   */\n      0x11\n        /* \"#utility.yul\":5398:5399   */\n      0x04\n        /* \"#utility.yul\":5391:5406   */\n      mstore\n        /* \"#utility.yul\":5425:5429   */\n      0x24\n        /* \"#utility.yul\":5422:5423   */\n      0x00\n        /* \"#utility.yul\":5415:5430   */\n      revert\n        /* \"#utility.yul\":5442:5636   */\n    tag_42:\n        /* \"#utility.yul\":5482:5486   */\n      0x00\n        /* \"#utility.yul\":5502:5522   */\n      tag_151\n        /* \"#utility.yul\":5520:5521   */\n      dup3\n        /* \"#utility.yul\":5502:5522   */\n      tag_76\n      jump\t// in\n    tag_151:\n        /* \"#utility.yul\":5497:5522   */\n      swap2\n      pop\n        /* \"#utility.yul\":5536:5556   */\n      tag_152\n        /* \"#utility.yul\":5554:5555   */\n      dup4\n        /* \"#utility.yul\":5536:5556   */\n      tag_76\n      jump\t// in\n    tag_152:\n        /* \"#utility.yul\":5531:5556   */\n      swap3\n      pop\n        /* \"#utility.yul\":5580:5581   */\n      dup3\n        /* \"#utility.yul\":5577:5578   */\n      dup3\n        /* \"#utility.yul\":5573:5582   */\n      sub\n        /* \"#utility.yul\":5565:5582   */\n      swap1\n      pop\n        /* \"#utility.yul\":5604:5605   */\n      dup2\n        /* \"#utility.yul\":5598:5602   */\n      dup2\n        /* \"#utility.yul\":5595:5606   */\n      gt\n        /* \"#utility.yul\":5592:5629   */\n      iszero\n      tag_153\n      jumpi\n        /* \"#utility.yul\":5609:5627   */\n      tag_154\n      tag_91\n      jump\t// in\n    tag_154:\n        /* \"#utility.yul\":5592:5629   */\n    tag_153:\n        /* \"#utility.yul\":5442:5636   */\n      swap3\n      swap2\n      pop\n      pop\n      jump\t// out\n        /* \"#utility.yul\":5642:5833   */\n    tag_50:\n        /* \"#utility.yul\":5682:5685   */\n      0x00\n        /* \"#utility.yul\":5701:5721   */\n      tag_156\n        /* \"#utility.yul\":5719:5720   */\n      dup3\n        /* \"#utility.yul\":5701:5721   */\n      tag_76\n      jump\t// in\n    tag_156:\n        /* \"#utility.yul\":5696:5721   */\n      swap2\n      pop\n        /* \"#utility.yul\":5735:5755   */\n      tag_157\n        /* \"#utility.yul\":5753:5754   */\n      dup4\n        /* \"#utility.yul\":5735:5755   */\n      tag_76\n      jump\t// in\n    tag_157:\n        /* \"#utility.yul\":5730:5755   */\n      swap3\n      pop\n        /* \"#utility.yul\":5778:5779   */\n      dup3\n        /* \"#utility.yul\":5775:5776   */\n      dup3\n        /* \"#utility.yul\":5771:5780   */\n      add\n        /* \"#utility.yul\":5764:5780   */\n      swap1\n      pop\n        /* \"#utility.yul\":5799:5802   */\n      dup1\n        /* \"#utility.yul\":5796:5797   */\n      dup3\n        /* \"#utility.yul\":5793:5803   */\n      gt\n        /* \"#utility.yul\":5790:5826   */\n      iszero\n      tag_158\n      jumpi\n        /* \"#utility.yul\":5806:5824   */\n      tag_159\n      tag_91\n      jump\t// in\n    tag_159:\n        /* \"#utility.yul\":5790:5826   */\n    tag_158:\n        /* \"#utility.yul\":5642:5833   */\n      swap3\n      swap2\n      pop\n      pop\n      jump\t// out\n        /* \"#utility.yul\":5839:6007   */\n    tag_92:\n        /* \"#utility.yul\":5979:5999   */\n      0x496e73756666696369656e742066756e64730000000000000000000000000000\n        /* \"#utility.yul\":5975:5976   */\n      0x00\n        /* \"#utility.yul\":5967:5973   */\n      dup3\n        /* \"#utility.yul\":5963:5977   */\n      add\n        /* \"#utility.yul\":5956:6000   */\n      mstore\n        /* \"#utility.yul\":5839:6007   */\n      pop\n      jump\t// out\n        /* \"#utility.yul\":6013:6379   */\n    tag_93:\n        /* \"#utility.yul\":6155:6158   */\n      0x00\n        /* \"#utility.yul\":6176:6243   */\n      tag_162\n        /* \"#utility.yul\":6240:6242   */\n      0x12\n        /* \"#utility.yul\":6235:6238   */\n      dup4\n        /* \"#utility.yul\":6176:6243   */\n      tag_86\n      jump\t// in\n    tag_162:\n        /* \"#utility.yul\":6169:6243   */\n      swap2\n      pop\n        /* \"#utility.yul\":6252:6345   */\n      tag_163\n        /* \"#utility.yul\":6341:6344   */\n      dup3\n        /* \"#utility.yul\":6252:6345   */\n      tag_92\n      jump\t// in\n    tag_163:\n        /* \"#utility.yul\":6370:6372   */\n      0x20\n        /* \"#utility.yul\":6365:6368   */\n      dup3\n        /* \"#utility.yul\":6361:6373   */\n      add\n        /* \"#utility.yul\":6354:6373   */\n      swap1\n      pop\n        /* \"#utility.yul\":6013:6379   */\n      swap2\n      swap1\n      pop\n      jump\t// out\n        /* \"#utility.yul\":6385:6804   */\n    tag_57:\n        /* \"#utility.yul\":6551:6555   */\n      0x00\n        /* \"#utility.yul\":6589:6591   */\n      0x20\n        /* \"#utility.yul\":6578:6587   */\n      dup3\n        /* \"#utility.yul\":6574:6592   */\n      add\n        /* \"#utility.yul\":6566:6592   */\n      swap1\n      pop\n        /* \"#utility.yul\":6638:6647   */\n      dup2\n        /* \"#utility.yul\":6632:6636   */\n      dup2\n        /* \"#utility.yul\":6628:6648   */\n      sub\n        /* \"#utility.yul\":6624:6625   */\n      0x00\n        /* \"#utility.yul\":6613:6622   */\n      dup4\n        /* \"#utility.yul\":6609:6626   */\n      add\n        /* \"#utility.yul\":6602:6649   */\n      mstore\n        /* \"#utility.yul\":6666:6797   */\n      tag_165\n        /* \"#utility.yul\":6792:6796   */\n      dup2\n        /* \"#utility.yul\":6666:6797   */\n      tag_93\n      jump\t// in\n    tag_165:\n        /* \"#utility.yul\":6658:6797   */\n      swap1\n      pop\n        /* \"#utility.yul\":6385:6804   */\n      swap2\n      swap1\n      pop\n      jump\t// out\n        /* \"#utility.yul\":6810:7035   */\n    tag_94:\n        /* \"#utility.yul\":6950:6984   */\n      0x526563697069656e742063616e6e6f742062652074686520636f6e7472616374\n        /* \"#utility.yul\":6946:6947   */\n      0x00\n        /* \"#utility.yul\":6938:6944   */\n      dup3\n        /* \"#utility.yul\":6934:6948   */\n      add\n        /* \"#utility.yul\":6927:6985   */\n      mstore\n        /* \"#utility.yul\":7019:7027   */\n      0x206f776e65720000000000000000000000000000000000000000000000000000\n        /* \"#utility.yul\":7014:7016   */\n      0x20\n        /* \"#utility.yul\":7006:7012   */\n      dup3\n        /* \"#utility.yul\":7002:7017   */\n      add\n        /* \"#utility.yul\":6995:7028   */\n      mstore\n        /* \"#utility.yul\":6810:7035   */\n      pop\n      jump\t// out\n        /* \"#utility.yul\":7041:7407   */\n    tag_95:\n        /* \"#utility.yul\":7183:7186   */\n      0x00\n        /* \"#utility.yul\":7204:7271   */\n      tag_168\n        /* \"#utility.yul\":7268:7270   */\n      0x26\n        /* \"#utility.yul\":7263:7266   */\n      dup4\n        /* \"#utility.yul\":7204:7271   */\n      tag_86\n      jump\t// in\n    tag_168:\n        /* \"#utility.yul\":7197:7271   */\n      swap2\n      pop\n        /* \"#utility.yul\":7280:7373   */\n      tag_169\n        /* \"#utility.yul\":7369:7372   */\n      dup3\n        /* \"#utility.yul\":7280:7373   */\n      tag_94\n      jump\t// in\n    tag_169:\n        /* \"#utility.yul\":7398:7400   */\n      0x40\n        /* \"#utility.yul\":7393:7396   */\n      dup3\n        /* \"#utility.yul\":7389:7401   */\n      add\n        /* \"#utility.yul\":7382:7401   */\n      swap1\n      pop\n        /* \"#utility.yul\":7041:7407   */\n      swap2\n      swap1\n      pop\n      jump\t// out\n        /* \"#utility.yul\":7413:7832   */\n    tag_62:\n        /* \"#utility.yul\":7579:7583   */\n      0x00\n        /* \"#utility.yul\":7617:7619   */\n      0x20\n        /* \"#utility.yul\":7606:7615   */\n      dup3\n        /* \"#utility.yul\":7602:7620   */\n      add\n        /* \"#utility.yul\":7594:7620   */\n      swap1\n      pop\n        /* \"#utility.yul\":7666:7675   */\n      dup2\n        /* \"#utility.yul\":7660:7664   */\n      dup2\n        /* \"#utility.yul\":7656:7676   */\n      sub\n        /* \"#utility.yul\":7652:7653   */\n      0x00\n        /* \"#utility.yul\":7641:7650   */\n      dup4\n        /* \"#utility.yul\":7637:7654   */\n      add\n        /* \"#utility.yul\":7630:7677   */\n      mstore\n        /* \"#utility.yul\":7694:7825   */\n      tag_171\n        /* \"#utility.yul\":7820:7824   */\n      dup2\n        /* \"#utility.yul\":7694:7825   */\n      tag_95\n      jump\t// in\n    tag_171:\n        /* \"#utility.yul\":7686:7825   */\n      swap1\n      pop\n        /* \"#utility.yul\":7413:7832   */\n      swap2\n      swap1\n      pop\n      jump\t// out\n        /* \"#utility.yul\":7838:8060   */\n    tag_96:\n        /* \"#utility.yul\":7978:8012   */\n      0x56616c75652073656e74206578636565647320636f6e74726163742062616c61\n        /* \"#utility.yul\":7974:7975   */\n      0x00\n        /* \"#utility.yul\":7966:7972   */\n      dup3\n        /* \"#utility.yul\":7962:7976   */\n      add\n        /* \"#utility.yul\":7955:8013   */\n      mstore\n        /* \"#utility.yul\":8047:8052   */\n      0x6e63650000000000000000000000000000000000000000000000000000000000\n        /* \"#utility.yul\":8042:8044   */\n      0x20\n        /* \"#utility.yul\":8034:8040   */\n      dup3\n        /* \"#utility.yul\":8030:8045   */\n      add\n        /* \"#utility.yul\":8023:8053   */\n      mstore\n        /* \"#utility.yul\":7838:8060   */\n      pop\n      jump\t// out\n        /* \"#utility.yul\":8066:8432   */\n    tag_97:\n        /* \"#utility.yul\":8208:8211   */\n      0x00\n        /* \"#utility.yul\":8229:8296   */\n      tag_174\n        /* \"#utility.yul\":8293:8295   */\n      0x23\n        /* \"#utility.yul\":8288:8291   */\n      dup4\n        /* \"#utility.yul\":8229:8296   */\n      tag_86\n      jump\t// in\n    tag_174:\n        /* \"#utility.yul\":8222:8296   */\n      swap2\n      pop\n        /* \"#utility.yul\":8305:8398   */\n      tag_175\n        /* \"#utility.yul\":8394:8397   */\n      dup3\n        /* \"#utility.yul\":8305:8398   */\n      tag_96\n      jump\t// in\n    tag_175:\n        /* \"#utility.yul\":8423:8425   */\n      0x40\n        /* \"#utility.yul\":8418:8421   */\n      dup3\n        /* \"#utility.yul\":8414:8426   */\n      add\n        /* \"#utility.yul\":8407:8426   */\n      swap1\n      pop\n        /* \"#utility.yul\":8066:8432   */\n      swap2\n      swap1\n      pop\n      jump\t// out\n        /* \"#utility.yul\":8438:8857   */\n    tag_65:\n        /* \"#utility.yul\":8604:8608   */\n      0x00\n        /* \"#utility.yul\":8642:8644   */\n      0x20\n        /* \"#utility.yul\":8631:8640   */\n      dup3\n        /* \"#utility.yul\":8627:8645   */\n      add\n        /* \"#utility.yul\":8619:8645   */\n      swap1\n      pop\n        /* \"#utility.yul\":8691:8700   */\n      dup2\n        /* \"#utility.yul\":8685:8689   */\n      dup2\n        /* \"#utility.yul\":8681:8701   */\n      sub\n        /* \"#utility.yul\":8677:8678   */\n      0x00\n        /* \"#utility.yul\":8666:8675   */\n      dup4\n        /* \"#utility.yul\":8662:8679   */\n      add\n        /* \"#utility.yul\":8655:8702   */\n      mstore\n        /* \"#utility.yul\":8719:8850   */\n      tag_177\n        /* \"#utility.yul\":8845:8849   */\n      dup2\n        /* \"#utility.yul\":8719:8850   */\n      tag_97\n      jump\t// in\n    tag_177:\n        /* \"#utility.yul\":8711:8850   */\n      swap1\n      pop\n        /* \"#utility.yul\":8438:8857   */\n      swap2\n      swap1\n      pop\n      jump\t// out\n\n    auxdata: 0xa264697066735822122024891069cb8b7183d7bee88c1c3ee96e0f968c1686c87df5db551d50d80f78d964736f6c63430008190033\n}\n",
				"bytecode": {
					"linkReferences": {},
					"object": "6080604052348015600e575f80fd5b50335f806101000a81548173ffffffffffffffffffffffffffffffffffffffff021916908373ffffffffffffffffffffffffffffffffffffffff160217905550610a968061005b5f395ff3fe608060405260043610610049575f3560e01c80632e1a7d4d1461004d5780638da5cb5b14610075578063b69ef8a81461009f578063b6b55f25146100c9578063b7760c8f146100f1575b5f80fd5b348015610058575f80fd5b50610073600480360381019061006e91906105f2565b61010d565b005b348015610080575f80fd5b5061008961020a565b604051610096919061065c565b60405180910390f35b3480156100aa575f80fd5b506100b361022d565b6040516100c09190610684565b60405180910390f35b3480156100d4575f80fd5b506100ef60048036038101906100ea91906105f2565b610233565b005b61010b600480360381019061010691906106d8565b61031d565b005b5f8054906101000a900473ffffffffffffffffffffffffffffffffffffffff1673ffffffffffffffffffffffffffffffffffffffff163373ffffffffffffffffffffffffffffffffffffffff161461019a576040517f08c379a000000000000000000000000000000000000000000000000000000000815260040161019190610796565b60405180910390fd5b8060015410156101ad576101ac6107b4565b5b5f81116101ef576040517f08c379a00000000000000000000000000000000000000000000000000000000081526004016101e69061082b565b60405180910390fd5b8060015f8282546102009190610876565b9250508190555050565b5f8054906101000a900473ffffffffffffffffffffffffffffffffffffffff1681565b60015481565b5f8054906101000a900473ffffffffffffffffffffffffffffffffffffffff1673ffffffffffffffffffffffffffffffffffffffff163373ffffffffffffffffffffffffffffffffffffffff16146102c0576040517f08c379a00000000000000000000000000000000000000000000000000000000081526004016102b790610796565b60405180910390fd5b5f8111610302576040517f08c379a00000000000000000000000000000000000000000000000000000000081526004016102f99061082b565b60405180910390fd5b8060015f82825461031391906108a9565b9250508190555050565b5f8054906101000a900473ffffffffffffffffffffffffffffffffffffffff1673ffffffffffffffffffffffffffffffffffffffff163373ffffffffffffffffffffffffffffffffffffffff16146103aa576040517f08c379a00000000000000000000000000000000000000000000000000000000081526004016103a190610796565b60405180910390fd5b8160015410156103ef576040517f08c379a00000000000000000000000000000000000000000000000000000000081526004016103e690610926565b60405180910390fd5b5f8211610431576040517f08c379a00000000000000000000000000000000000000000000000000000000081526004016104289061082b565b60405180910390fd5b5f8054906101000a900473ffffffffffffffffffffffffffffffffffffffff1673ffffffffffffffffffffffffffffffffffffffff168173ffffffffffffffffffffffffffffffffffffffff16036104be576040517f08c379a00000000000000000000000000000000000000000000000000000000081526004016104b5906109b4565b60405180910390fd5b600154341115610503576040517f08c379a00000000000000000000000000000000000000000000000000000000081526004016104fa90610a42565b60405180910390fd5b8160015f8282546105149190610876565b925050819055508073ffffffffffffffffffffffffffffffffffffffff166108fc8390811502906040515f60405180830381858888f1935050505015801561055e573d5f803e3d5ffd5b50813411156105b7573373ffffffffffffffffffffffffffffffffffffffff166108fc833461058d9190610876565b90811502906040515f60405180830381858888f193505050501580156105b5573d5f803e3d5ffd5b505b5050565b5f80fd5b5f819050919050565b6105d1816105bf565b81146105db575f80fd5b50565b5f813590506105ec816105c8565b92915050565b5f60208284031215610607576106066105bb565b5b5f610614848285016105de565b91505092915050565b5f73ffffffffffffffffffffffffffffffffffffffff82169050919050565b5f6106468261061d565b9050919050565b6106568161063c565b82525050565b5f60208201905061066f5f83018461064d565b92915050565b61067e816105bf565b82525050565b5f6020820190506106975f830184610675565b92915050565b5f6106a78261061d565b9050919050565b6106b78161069d565b81146106c1575f80fd5b50565b5f813590506106d2816106ae565b92915050565b5f80604083850312156106ee576106ed6105bb565b5b5f6106fb858286016105de565b925050602061070c858286016106c4565b9150509250929050565b5f82825260208201905092915050565b7f4f6e6c7920636f6e7472616374206f776e65722063616e20706572666f726d205f8201527f74686973206f7065726174696f6e000000000000000000000000000000000000602082015250565b5f610780602e83610716565b915061078b82610726565b604082019050919050565b5f6020820190508181035f8301526107ad81610774565b9050919050565b7f4e487b71000000000000000000000000000000000000000000000000000000005f52600160045260245ffd5b7f416d6f756e74206d7573742062652067726561746572207468616e207a65726f5f82015250565b5f610815602083610716565b9150610820826107e1565b602082019050919050565b5f6020820190508181035f83015261084281610809565b9050919050565b7f4e487b71000000000000000000000000000000000000000000000000000000005f52601160045260245ffd5b5f610880826105bf565b915061088b836105bf565b92508282039050818111156108a3576108a2610849565b5b92915050565b5f6108b3826105bf565b91506108be836105bf565b92508282019050808211156108d6576108d5610849565b5b92915050565b7f496e73756666696369656e742066756e647300000000000000000000000000005f82015250565b5f610910601283610716565b915061091b826108dc565b602082019050919050565b5f6020820190508181035f83015261093d81610904565b9050919050565b7f526563697069656e742063616e6e6f742062652074686520636f6e74726163745f8201527f206f776e65720000000000000000000000000000000000000000000000000000602082015250565b5f61099e602683610716565b91506109a982610944565b604082019050919050565b5f6020820190508181035f8301526109cb81610992565b9050919050565b7f56616c75652073656e74206578636565647320636f6e74726163742062616c615f8201527f6e63650000000000000000000000000000000000000000000000000000000000602082015250565b5f610a2c602383610716565b9150610a37826109d2565b604082019050919050565b5f6020820190508181035f830152610a5981610a20565b905091905056fea264697066735822122024891069cb8b7183d7bee88c1c3ee96e0f968c1686c87df5db551d50d80f78d964736f6c63430008190033",
					"opcodes": "PUSH1 0x80 PUSH1 0x40 MSTORE CALLVALUE DUP1 ISZERO PUSH1 0xE JUMPI PUSH0 DUP1 REVERT JUMPDEST POP CALLER PUSH0 DUP1 PUSH2 0x100 EXP DUP2 SLOAD DUP2 PUSH20 0xFFFFFFFFFFFFFFFFFFFFFFFFFFFFFFFFFFFFFFFF MUL NOT AND SWAP1 DUP4 PUSH20 0xFFFFFFFFFFFFFFFFFFFFFFFFFFFFFFFFFFFFFFFF AND MUL OR SWAP1 SSTORE POP PUSH2 0xA96 DUP1 PUSH2 0x5B PUSH0 CODECOPY PUSH0 RETURN INVALID PUSH1 0x80 PUSH1 0x40 MSTORE PUSH1 0x4 CALLDATASIZE LT PUSH2 0x49 JUMPI PUSH0 CALLDATALOAD PUSH1 0xE0 SHR DUP1 PUSH4 0x2E1A7D4D EQ PUSH2 0x4D JUMPI DUP1 PUSH4 0x8DA5CB5B EQ PUSH2 0x75 JUMPI DUP1 PUSH4 0xB69EF8A8 EQ PUSH2 0x9F JUMPI DUP1 PUSH4 0xB6B55F25 EQ PUSH2 0xC9 JUMPI DUP1 PUSH4 0xB7760C8F EQ PUSH2 0xF1 JUMPI JUMPDEST PUSH0 DUP1 REVERT JUMPDEST CALLVALUE DUP1 ISZERO PUSH2 0x58 JUMPI PUSH0 DUP1 REVERT JUMPDEST POP PUSH2 0x73 PUSH1 0x4 DUP1 CALLDATASIZE SUB DUP2 ADD SWAP1 PUSH2 0x6E SWAP2 SWAP1 PUSH2 0x5F2 JUMP JUMPDEST PUSH2 0x10D JUMP JUMPDEST STOP JUMPDEST CALLVALUE DUP1 ISZERO PUSH2 0x80 JUMPI PUSH0 DUP1 REVERT JUMPDEST POP PUSH2 0x89 PUSH2 0x20A JUMP JUMPDEST PUSH1 0x40 MLOAD PUSH2 0x96 SWAP2 SWAP1 PUSH2 0x65C JUMP JUMPDEST PUSH1 0x40 MLOAD DUP1 SWAP2 SUB SWAP1 RETURN JUMPDEST CALLVALUE DUP1 ISZERO PUSH2 0xAA JUMPI PUSH0 DUP1 REVERT JUMPDEST POP PUSH2 0xB3 PUSH2 0x22D JUMP JUMPDEST PUSH1 0x40 MLOAD PUSH2 0xC0 SWAP2 SWAP1 PUSH2 0x684 JUMP JUMPDEST PUSH1 0x40 MLOAD DUP1 SWAP2 SUB SWAP1 RETURN JUMPDEST CALLVALUE DUP1 ISZERO PUSH2 0xD4 JUMPI PUSH0 DUP1 REVERT JUMPDEST POP PUSH2 0xEF PUSH1 0x4 DUP1 CALLDATASIZE SUB DUP2 ADD SWAP1 PUSH2 0xEA SWAP2 SWAP1 PUSH2 0x5F2 JUMP JUMPDEST PUSH2 0x233 JUMP JUMPDEST STOP JUMPDEST PUSH2 0x10B PUSH1 0x4 DUP1 CALLDATASIZE SUB DUP2 ADD SWAP1 PUSH2 0x106 SWAP2 SWAP1 PUSH2 0x6D8 JUMP JUMPDEST PUSH2 0x31D JUMP JUMPDEST STOP JUMPDEST PUSH0 DUP1 SLOAD SWAP1 PUSH2 0x100 EXP SWAP1 DIV PUSH20 0xFFFFFFFFFFFFFFFFFFFFFFFFFFFFFFFFFFFFFFFF AND PUSH20 0xFFFFFFFFFFFFFFFFFFFFFFFFFFFFFFFFFFFFFFFF AND CALLER PUSH20 0xFFFFFFFFFFFFFFFFFFFFFFFFFFFFFFFFFFFFFFFF AND EQ PUSH2 0x19A JUMPI PUSH1 0x40 MLOAD PUSH32 0x8C379A000000000000000000000000000000000000000000000000000000000 DUP2 MSTORE PUSH1 0x4 ADD PUSH2 0x191 SWAP1 PUSH2 0x796 JUMP JUMPDEST PUSH1 0x40 MLOAD DUP1 SWAP2 SUB SWAP1 REVERT JUMPDEST DUP1 PUSH1 0x1 SLOAD LT ISZERO PUSH2 0x1AD JUMPI PUSH2 0x1AC PUSH2 0x7B4 JUMP JUMPDEST JUMPDEST PUSH0 DUP2 GT PUSH2 0x1EF JUMPI PUSH1 0x40 MLOAD PUSH32 0x8C379A000000000000000000000000000000000000000000000000000000000 DUP2 MSTORE PUSH1 0x4 ADD PUSH2 0x1E6 SWAP1 PUSH2 0x82B JUMP JUMPDEST PUSH1 0x40 MLOAD DUP1 SWAP2 SUB SWAP1 REVERT JUMPDEST DUP1 PUSH1 0x1 PUSH0 DUP3 DUP3 SLOAD PUSH2 0x200 SWAP2 SWAP1 PUSH2 0x876 JUMP JUMPDEST SWAP3 POP POP DUP2 SWAP1 SSTORE POP POP JUMP JUMPDEST PUSH0 DUP1 SLOAD SWAP1 PUSH2 0x100 EXP SWAP1 DIV PUSH20 0xFFFFFFFFFFFFFFFFFFFFFFFFFFFFFFFFFFFFFFFF AND DUP2 JUMP JUMPDEST PUSH1 0x1 SLOAD DUP2 JUMP JUMPDEST PUSH0 DUP1 SLOAD SWAP1 PUSH2 0x100 EXP SWAP1 DIV PUSH20 0xFFFFFFFFFFFFFFFFFFFFFFFFFFFFFFFFFFFFFFFF AND PUSH20 0xFFFFFFFFFFFFFFFFFFFFFFFFFFFFFFFFFFFFFFFF AND CALLER PUSH20 0xFFFFFFFFFFFFFFFFFFFFFFFFFFFFFFFFFFFFFFFF AND EQ PUSH2 0x2C0 JUMPI PUSH1 0x40 MLOAD PUSH32 0x8C379A000000000000000000000000000000000000000000000000000000000 DUP2 MSTORE PUSH1 0x4 ADD PUSH2 0x2B7 SWAP1 PUSH2 0x796 JUMP JUMPDEST PUSH1 0x40 MLOAD DUP1 SWAP2 SUB SWAP1 REVERT JUMPDEST PUSH0 DUP2 GT PUSH2 0x302 JUMPI PUSH1 0x40 MLOAD PUSH32 0x8C379A000000000000000000000000000000000000000000000000000000000 DUP2 MSTORE PUSH1 0x4 ADD PUSH2 0x2F9 SWAP1 PUSH2 0x82B JUMP JUMPDEST PUSH1 0x40 MLOAD DUP1 SWAP2 SUB SWAP1 REVERT JUMPDEST DUP1 PUSH1 0x1 PUSH0 DUP3 DUP3 SLOAD PUSH2 0x313 SWAP2 SWAP1 PUSH2 0x8A9 JUMP JUMPDEST SWAP3 POP POP DUP2 SWAP1 SSTORE POP POP JUMP JUMPDEST PUSH0 DUP1 SLOAD SWAP1 PUSH2 0x100 EXP SWAP1 DIV PUSH20 0xFFFFFFFFFFFFFFFFFFFFFFFFFFFFFFFFFFFFFFFF AND PUSH20 0xFFFFFFFFFFFFFFFFFFFFFFFFFFFFFFFFFFFFFFFF AND CALLER PUSH20 0xFFFFFFFFFFFFFFFFFFFFFFFFFFFFFFFFFFFFFFFF AND EQ PUSH2 0x3AA JUMPI PUSH1 0x40 MLOAD PUSH32 0x8C379A000000000000000000000000000000000000000000000000000000000 DUP2 MSTORE PUSH1 0x4 ADD PUSH2 0x3A1 SWAP1 PUSH2 0x796 JUMP JUMPDEST PUSH1 0x40 MLOAD DUP1 SWAP2 SUB SWAP1 REVERT JUMPDEST DUP2 PUSH1 0x1 SLOAD LT ISZERO PUSH2 0x3EF JUMPI PUSH1 0x40 MLOAD PUSH32 0x8C379A000000000000000000000000000000000000000000000000000000000 DUP2 MSTORE PUSH1 0x4 ADD PUSH2 0x3E6 SWAP1 PUSH2 0x926 JUMP JUMPDEST PUSH1 0x40 MLOAD DUP1 SWAP2 SUB SWAP1 REVERT JUMPDEST PUSH0 DUP3 GT PUSH2 0x431 JUMPI PUSH1 0x40 MLOAD PUSH32 0x8C379A000000000000000000000000000000000000000000000000000000000 DUP2 MSTORE PUSH1 0x4 ADD PUSH2 0x428 SWAP1 PUSH2 0x82B JUMP JUMPDEST PUSH1 0x40 MLOAD DUP1 SWAP2 SUB SWAP1 REVERT JUMPDEST PUSH0 DUP1 SLOAD SWAP1 PUSH2 0x100 EXP SWAP1 DIV PUSH20 0xFFFFFFFFFFFFFFFFFFFFFFFFFFFFFFFFFFFFFFFF AND PUSH20 0xFFFFFFFFFFFFFFFFFFFFFFFFFFFFFFFFFFFFFFFF AND DUP2 PUSH20 0xFFFFFFFFFFFFFFFFFFFFFFFFFFFFFFFFFFFFFFFF AND SUB PUSH2 0x4BE JUMPI PUSH1 0x40 MLOAD PUSH32 0x8C379A000000000000000000000000000000000000000000000000000000000 DUP2 MSTORE PUSH1 0x4 ADD PUSH2 0x4B5 SWAP1 PUSH2 0x9B4 JUMP JUMPDEST PUSH1 0x40 MLOAD DUP1 SWAP2 SUB SWAP1 REVERT JUMPDEST PUSH1 0x1 SLOAD CALLVALUE GT ISZERO PUSH2 0x503 JUMPI PUSH1 0x40 MLOAD PUSH32 0x8C379A000000000000000000000000000000000000000000000000000000000 DUP2 MSTORE PUSH1 0x4 ADD PUSH2 0x4FA SWAP1 PUSH2 0xA42 JUMP JUMPDEST PUSH1 0x40 MLOAD DUP1 SWAP2 SUB SWAP1 REVERT JUMPDEST DUP2 PUSH1 0x1 PUSH0 DUP3 DUP3 SLOAD PUSH2 0x514 SWAP2 SWAP1 PUSH2 0x876 JUMP JUMPDEST SWAP3 POP POP DUP2 SWAP1 SSTORE POP DUP1 PUSH20 0xFFFFFFFFFFFFFFFFFFFFFFFFFFFFFFFFFFFFFFFF AND PUSH2 0x8FC DUP4 SWAP1 DUP2 ISZERO MUL SWAP1 PUSH1 0x40 MLOAD PUSH0 PUSH1 0x40 MLOAD DUP1 DUP4 SUB DUP2 DUP6 DUP9 DUP9 CALL SWAP4 POP POP POP POP ISZERO DUP1 ISZERO PUSH2 0x55E JUMPI RETURNDATASIZE PUSH0 DUP1 RETURNDATACOPY RETURNDATASIZE PUSH0 REVERT JUMPDEST POP DUP2 CALLVALUE GT ISZERO PUSH2 0x5B7 JUMPI CALLER PUSH20 0xFFFFFFFFFFFFFFFFFFFFFFFFFFFFFFFFFFFFFFFF AND PUSH2 0x8FC DUP4 CALLVALUE PUSH2 0x58D SWAP2 SWAP1 PUSH2 0x876 JUMP JUMPDEST SWAP1 DUP2 ISZERO MUL SWAP1 PUSH1 0x40 MLOAD PUSH0 PUSH1 0x40 MLOAD DUP1 DUP4 SUB DUP2 DUP6 DUP9 DUP9 CALL SWAP4 POP POP POP POP ISZERO DUP1 ISZERO PUSH2 0x5B5 JUMPI RETURNDATASIZE PUSH0 DUP1 RETURNDATACOPY RETURNDATASIZE PUSH0 REVERT JUMPDEST POP JUMPDEST POP POP JUMP JUMPDEST PUSH0 DUP1 REVERT JUMPDEST PUSH0 DUP2 SWAP1 POP SWAP2 SWAP1 POP JUMP JUMPDEST PUSH2 0x5D1 DUP2 PUSH2 0x5BF JUMP JUMPDEST DUP2 EQ PUSH2 0x5DB JUMPI PUSH0 DUP1 REVERT JUMPDEST POP JUMP JUMPDEST PUSH0 DUP2 CALLDATALOAD SWAP1 POP PUSH2 0x5EC DUP2 PUSH2 0x5C8 JUMP JUMPDEST SWAP3 SWAP2 POP POP JUMP JUMPDEST PUSH0 PUSH1 0x20 DUP3 DUP5 SUB SLT ISZERO PUSH2 0x607 JUMPI PUSH2 0x606 PUSH2 0x5BB JUMP JUMPDEST JUMPDEST PUSH0 PUSH2 0x614 DUP5 DUP3 DUP6 ADD PUSH2 0x5DE JUMP JUMPDEST SWAP2 POP POP SWAP3 SWAP2 POP POP JUMP JUMPDEST PUSH0 PUSH20 0xFFFFFFFFFFFFFFFFFFFFFFFFFFFFFFFFFFFFFFFF DUP3 AND SWAP1 POP SWAP2 SWAP1 POP JUMP JUMPDEST PUSH0 PUSH2 0x646 DUP3 PUSH2 0x61D JUMP JUMPDEST SWAP1 POP SWAP2 SWAP1 POP JUMP JUMPDEST PUSH2 0x656 DUP2 PUSH2 0x63C JUMP JUMPDEST DUP3 MSTORE POP POP JUMP JUMPDEST PUSH0 PUSH1 0x20 DUP3 ADD SWAP1 POP PUSH2 0x66F PUSH0 DUP4 ADD DUP5 PUSH2 0x64D JUMP JUMPDEST SWAP3 SWAP2 POP POP JUMP JUMPDEST PUSH2 0x67E DUP2 PUSH2 0x5BF JUMP JUMPDEST DUP3 MSTORE POP POP JUMP JUMPDEST PUSH0 PUSH1 0x20 DUP3 ADD SWAP1 POP PUSH2 0x697 PUSH0 DUP4 ADD DUP5 PUSH2 0x675 JUMP JUMPDEST SWAP3 SWAP2 POP POP JUMP JUMPDEST PUSH0 PUSH2 0x6A7 DUP3 PUSH2 0x61D JUMP JUMPDEST SWAP1 POP SWAP2 SWAP1 POP JUMP JUMPDEST PUSH2 0x6B7 DUP2 PUSH2 0x69D JUMP JUMPDEST DUP2 EQ PUSH2 0x6C1 JUMPI PUSH0 DUP1 REVERT JUMPDEST POP JUMP JUMPDEST PUSH0 DUP2 CALLDATALOAD SWAP1 POP PUSH2 0x6D2 DUP2 PUSH2 0x6AE JUMP JUMPDEST SWAP3 SWAP2 POP POP JUMP JUMPDEST PUSH0 DUP1 PUSH1 0x40 DUP4 DUP6 SUB SLT ISZERO PUSH2 0x6EE JUMPI PUSH2 0x6ED PUSH2 0x5BB JUMP JUMPDEST JUMPDEST PUSH0 PUSH2 0x6FB DUP6 DUP3 DUP7 ADD PUSH2 0x5DE JUMP JUMPDEST SWAP3 POP POP PUSH1 0x20 PUSH2 0x70C DUP6 DUP3 DUP7 ADD PUSH2 0x6C4 JUMP JUMPDEST SWAP2 POP POP SWAP3 POP SWAP3 SWAP1 POP JUMP JUMPDEST PUSH0 DUP3 DUP3 MSTORE PUSH1 0x20 DUP3 ADD SWAP1 POP SWAP3 SWAP2 POP POP JUMP JUMPDEST PUSH32 0x4F6E6C7920636F6E7472616374206F776E65722063616E20706572666F726D20 PUSH0 DUP3 ADD MSTORE PUSH32 0x74686973206F7065726174696F6E000000000000000000000000000000000000 PUSH1 0x20 DUP3 ADD MSTORE POP JUMP JUMPDEST PUSH0 PUSH2 0x780 PUSH1 0x2E DUP4 PUSH2 0x716 JUMP JUMPDEST SWAP2 POP PUSH2 0x78B DUP3 PUSH2 0x726 JUMP JUMPDEST PUSH1 0x40 DUP3 ADD SWAP1 POP SWAP2 SWAP1 POP JUMP JUMPDEST PUSH0 PUSH1 0x20 DUP3 ADD SWAP1 POP DUP2 DUP2 SUB PUSH0 DUP4 ADD MSTORE PUSH2 0x7AD DUP2 PUSH2 0x774 JUMP JUMPDEST SWAP1 POP SWAP2 SWAP1 POP JUMP JUMPDEST PUSH32 0x4E487B7100000000000000000000000000000000000000000000000000000000 PUSH0 MSTORE PUSH1 0x1 PUSH1 0x4 MSTORE PUSH1 0x24 PUSH0 REVERT JUMPDEST PUSH32 0x416D6F756E74206D7573742062652067726561746572207468616E207A65726F PUSH0 DUP3 ADD MSTORE POP JUMP JUMPDEST PUSH0 PUSH2 0x815 PUSH1 0x20 DUP4 PUSH2 0x716 JUMP JUMPDEST SWAP2 POP PUSH2 0x820 DUP3 PUSH2 0x7E1 JUMP JUMPDEST PUSH1 0x20 DUP3 ADD SWAP1 POP SWAP2 SWAP1 POP JUMP JUMPDEST PUSH0 PUSH1 0x20 DUP3 ADD SWAP1 POP DUP2 DUP2 SUB PUSH0 DUP4 ADD MSTORE PUSH2 0x842 DUP2 PUSH2 0x809 JUMP JUMPDEST SWAP1 POP SWAP2 SWAP1 POP JUMP JUMPDEST PUSH32 0x4E487B7100000000000000000000000000000000000000000000000000000000 PUSH0 MSTORE PUSH1 0x11 PUSH1 0x4 MSTORE PUSH1 0x24 PUSH0 REVERT JUMPDEST PUSH0 PUSH2 0x880 DUP3 PUSH2 0x5BF JUMP JUMPDEST SWAP2 POP PUSH2 0x88B DUP4 PUSH2 0x5BF JUMP JUMPDEST SWAP3 POP DUP3 DUP3 SUB SWAP1 POP DUP2 DUP2 GT ISZERO PUSH2 0x8A3 JUMPI PUSH2 0x8A2 PUSH2 0x849 JUMP JUMPDEST JUMPDEST SWAP3 SWAP2 POP POP JUMP JUMPDEST PUSH0 PUSH2 0x8B3 DUP3 PUSH2 0x5BF JUMP JUMPDEST SWAP2 POP PUSH2 0x8BE DUP4 PUSH2 0x5BF JUMP JUMPDEST SWAP3 POP DUP3 DUP3 ADD SWAP1 POP DUP1 DUP3 GT ISZERO PUSH2 0x8D6 JUMPI PUSH2 0x8D5 PUSH2 0x849 JUMP JUMPDEST JUMPDEST SWAP3 SWAP2 POP POP JUMP JUMPDEST PUSH32 0x496E73756666696369656E742066756E64730000000000000000000000000000 PUSH0 DUP3 ADD MSTORE POP JUMP JUMPDEST PUSH0 PUSH2 0x910 PUSH1 0x12 DUP4 PUSH2 0x716 JUMP JUMPDEST SWAP2 POP PUSH2 0x91B DUP3 PUSH2 0x8DC JUMP JUMPDEST PUSH1 0x20 DUP3 ADD SWAP1 POP SWAP2 SWAP1 POP JUMP JUMPDEST PUSH0 PUSH1 0x20 DUP3 ADD SWAP1 POP DUP2 DUP2 SUB PUSH0 DUP4 ADD MSTORE PUSH2 0x93D DUP2 PUSH2 0x904 JUMP JUMPDEST SWAP1 POP SWAP2 SWAP1 POP JUMP JUMPDEST PUSH32 0x526563697069656E742063616E6E6F742062652074686520636F6E7472616374 PUSH0 DUP3 ADD MSTORE PUSH32 0x206F776E65720000000000000000000000000000000000000000000000000000 PUSH1 0x20 DUP3 ADD MSTORE POP JUMP JUMPDEST PUSH0 PUSH2 0x99E PUSH1 0x26 DUP4 PUSH2 0x716 JUMP JUMPDEST SWAP2 POP PUSH2 0x9A9 DUP3 PUSH2 0x944 JUMP JUMPDEST PUSH1 0x40 DUP3 ADD SWAP1 POP SWAP2 SWAP1 POP JUMP JUMPDEST PUSH0 PUSH1 0x20 DUP3 ADD SWAP1 POP DUP2 DUP2 SUB PUSH0 DUP4 ADD MSTORE PUSH2 0x9CB DUP2 PUSH2 0x992 JUMP JUMPDEST SWAP1 POP SWAP2 SWAP1 POP JUMP JUMPDEST PUSH32 0x56616C75652073656E74206578636565647320636F6E74726163742062616C61 PUSH0 DUP3 ADD MSTORE PUSH32 0x6E63650000000000000000000000000000000000000000000000000000000000 PUSH1 0x20 DUP3 ADD MSTORE POP JUMP JUMPDEST PUSH0 PUSH2 0xA2C PUSH1 0x23 DUP4 PUSH2 0x716 JUMP JUMPDEST SWAP2 POP PUSH2 0xA37 DUP3 PUSH2 0x9D2 JUMP JUMPDEST PUSH1 0x40 DUP3 ADD SWAP1 POP SWAP2 SWAP1 POP JUMP JUMPDEST PUSH0 PUSH1 0x20 DUP3 ADD SWAP1 POP DUP2 DUP2 SUB PUSH0 DUP4 ADD MSTORE PUSH2 0xA59 DUP2 PUSH2 0xA20 JUMP JUMPDEST SWAP1 POP SWAP2 SWAP1 POP JUMP INVALID LOG2 PUSH5 0x6970667358 0x22 SLT KECCAK256 0x24 DUP10 LT PUSH10 0xCB8B7183D7BEE88C1C3E 0xE9 PUSH15 0xF968C1686C87DF5DB551D50D80F78 0xD9 PUSH5 0x736F6C6343 STOP ADDMOD NOT STOP CALLER "
				},
				"gasEstimates": {
					"creation": {
						"codeDepositCost": "542000",
						"executionCost": "24838",
						"totalCost": "566838"
					},
					"external": {
						"balance()": "2447",
						"deposit(uint256)": "infinite",
						"owner()": "2505",
						"transfer(uint256,address)": "infinite",
						"withdraw(uint256)": "infinite"
					}
				},
				"methodIdentifiers": {
					"balance()": "b69ef8a8",
					"deposit(uint256)": "b6b55f25",
					"owner()": "8da5cb5b",
					"transfer(uint256,address)": "b7760c8f",
					"withdraw(uint256)": "2e1a7d4d"
				}
			},
			"storageLayout": {
				"storage": [
					{
						"astId": 3,
						"contract": "contracts/4_sample.sol:MySmartContract",
						"label": "owner",
						"offset": 0,
						"slot": "0",
						"type": "t_address"
					},
					{
						"astId": 5,
						"contract": "contracts/4_sample.sol:MySmartContract",
						"label": "balance",
						"offset": 0,
						"slot": "1",
						"type": "t_uint256"
					}
				],
				"types": {
					"t_address": {
						"encoding": "inplace",
						"label": "address",
						"numberOfBytes": "20"
					},
					"t_uint256": {
						"encoding": "inplace",
						"label": "uint256",
						"numberOfBytes": "32"
					}
				}
			},
			"userdoc": {
				"kind": "user",
				"methods": {},
				"version": 1
			}
		}
	}
}